:0300000002EA3DD4
:0CEA3D00787FE4F6D8FD75813D02EA8484
:10ED870012EF2F12EF1712EC2612EE8C12EE15EF80
:10ED9700601412E55C7B007AFA79008B228A23895A
:10EDA7002412E74B80E67B007AFA79008B228A23CC
:07EDB700892412E74B80D50F
:10EEA900476574204F54410D0A005945530D0A0016
:0BEEB90055706461746125640D0A004F
:08EF3A004104280041042400F9
:10EE15007528FF7529EE752AB3E4752E10752D2713
:10EE2500F52CF52B7BFF7AEE79A912E7C5EA494B5C
:08EE350060037F01227F00222F
:10EBBF00E4FFFE12EED9900425EFF07F017E0012E4
:10EBCF00EED9900426EFF07F027E0012EED990046A
:10EBDF0027EFF07F007EFA12EE3D900002E0FD7FFE
:10EBEF00007EFA12EDEC900003E0FD7F017EFA1239
:10EBFF00EDEC900004E0FD7F027EFA12EDEC900444
:10EC0F0025E0900002F0900426E0900003F09004BD
:07EC1F0027E0900004F02241
:10EC8600EF14602D047056E490041BF0A3F090047A
:10EC96001BE0FEA3E0FFC394FFEE946F503F12EE1D
:10ECA6003D90041CE02400F090041BE03402F08048
:10ECB600DD90041B7470F0A3E4F090041BE0FEA347
:10ECC600E0FFC394FFEE94DF501312EE3D90041C58
:0DECD600E02400F090041BE03402F080DD2B
:01ECE300220E
:10E98900900408A3E0FF900407E024FEFD9004062C
:04E99900E034FFFC6B
:10E99D00EF25E0FEE42400FFEE347090041DF0A39B
:10E9AD00EFF0C3EC9402500AE02DFE90041DE03C04
:10E9BD00800D90041EE02400FE90041DE0340290B2
:10E9CD00041FF0A3CEF0D3900420E094FF90041F19
:10E9DD00E094DF40037F012290041DE0FFA3E0904F
:10E9ED00041BCFF0A3EFF090041FE0FEA3E0FFC3E4
:10E9FD0090041CE09F90041BE09E5031E0FEA3E0CC
:10EA0D00FFA3E0FCA3E0FDC3EF9DFDEE9CFC7402B3
:10EA1D002DF58274003CF583E0FD12EDEC90041CA5
:0FEA2D00E004F070C290041BE004F080BA7F0098
:01EA3C0022B7
:10E55C00E4900404F0A3F0A3F0A3F0A3F0A3F090D4
:10E56C000428E014601514700302E629240270EFED
:10E57C007F0112EC8690042802E6427528FF75296B
:10E58C00EE752AB9900408E0F52BA3E0F52C7B017D
:10E59C007A04790A12E05C7B017A04790A7F107E96
:10E5AC00277D007C0012E8B0900406EEF0A3EFF09B
:10E5BC0012EF0AEF60A912EB4BEF60A3900406E098
:10E5CC00B40224A3E0B4021FA3E07002A3E0700322
:10E5DC0012EBBF12E989900409E004F07006900474
:10E5EC0008E004F002E56B12E989900409E004F0FC
:10E5FC007006900408E004F0900409E025E0FE9019
:10E60C000407E02400FF900406E03ECF24FECF3444
:10E61C00FF900404F0A3EFF090042880669004248B
:10E62C00E01460181460622402600302E56BE4FFDE
:10E63C0012EC869004247401F002E56BE490040261
:10E64C00F0A3F0900404E0FEA3E0FF900402E0FCD1
:10E65C00A3E0FDC39FEC9E5027E42DFFEC3470FE2D
:10E66C0012EED9AD07900402E0FEA3E0FF12EDEC30
:10E67C00900403E004F070CB900402E004F080C33B
:09E68C009004247402F002E56B15
:01E695002262
:10EE3D00A2AF9200C2AF75FF8075EF068F828E83F1
:10EE4D00438F0375B7A575B7F175FF8075EF02E4B4
:07EE5D00F0F58FA20092AF57
:01EE6400228B
:10EDEC00A2AF9200C2AF75FF8075EF068F828E8343
:10EDFC00438F0175B7A575B7F175FF8075EF02EDFF
:08EE0C00F0E4F58FA20092AFC3
:01EE140022DB
:10EED900A2AF9200C2AF8F828E83E493FFA2009209
:01EEE900AF79
:01EEEA002205
:10E35C0000C1814001C0804101C0804100C18140A9
:10E36C0001C0804100C1814000C1814001C0804199
:10E37C0001C0804100C1814000C1814001C0804189
:10E38C0000C1814001C0804101C0804100C1814079
:10E39C0001C0804100C1814000C1814001C0804169
:10E3AC0000C1814001C0804101C0804100C1814059
:10E3BC0000C1814001C0804101C0804100C1814049
:10E3CC0001C0804100C1814000C1814001C0804139
:10E3DC0001C0804100C1814000C1814001C0804129
:10E3EC0000C1814001C0804101C0804100C1814019
:10E3FC0000C1814001C0804101C0804100C1814009
:10E40C0001C0804100C1814000C1814001C08041F8
:10E41C0000C1814001C0804101C0804100C18140E8
:10E42C0001C0804100C1814000C1814001C08041D8
:10E43C0001C0804100C1814000C1814001C08041C8
:10E44C0000C1814001C0804101C0804100C18140B8
:10E45C0000C0C101C30302C2C60607C705C5C40478
:10E46C00CC0C0DCD0FCFCE0E0ACACB0BC90908C8E8
:10E47C00D81819D91BDBDA1A1EDEDF1FDD1D1CDCD8
:10E48C0014D4D515D71716D6D21213D311D1D01048
:10E49C00F03031F133F3F23236F6F737F53534F438
:10E4AC003CFCFD3DFF3F3EFEFA3A3BFB39F9F838A8
:10E4BC0028E8E929EB2B2AEAEE2E2FEF2DEDEC2C98
:10E4CC00E42425E527E7E62622E2E323E12120E008
:10E4DC00A06061A163A3A26266A6A767A56564A4F8
:10E4EC006CACAD6DAF6F6EAEAA6A6BAB69A9A86868
:10E4FC0078B8B979BB7B7ABABE7E7FBF7DBDBC7C58
:10E50C00B47475B577B7B67672B2B373B17170B0C7
:10E51C0050909151935352929656579755959454B7
:10E52C009C5C5D9D5F9F9E5E5A9A9B5B9959589827
:10E53C00884849894B8B8A4A4E8E8F4F8D4D4C8C17
:10E54C004484854587474686824243834181804087
:10EE8C00E4F5A7759810758DF3538EF4438E0885B1
:0DEE9C008D8B53890F438920D28ED299228D
:0FEEEB00E4FFAEA7F5A7309804AF99C2988EA7A1
:01EEFA0022F5
:06ED3D008B2F8A308931A2
:10ED430085A732E4F5A790041FF0A3F090041FE019
:10ED5300FEA3E0FFC39DEE9C5026C299AB2FAA30C1
:10ED6300A9318F828E8312E6AFF5993099FDC2994E
:10ED7300900420E004F070D490041FE004F080CCF1
:03ED83008532A72F
:01ED8600226A
:0BEF2400900000E0543FFEA3E0FF223D
:0DEF0A00900000E030E7037F01227F00222D
:06ECE4008B258A2689271A
:10ECEA0090042174FFF0A3F0ED1DAE0470011C4ED8
:10ECFA006036AB250527E527AA267002052614F9F2
:10ED0A0012E696FF900421E06F900423F0E0FF9052
:10ED1A00E35C93FE900422E06E900421F0EF90E40D
:10ED2A005C93900422F080C0900421E0FEA3E0FDF1
:02ED3A00EDFFEB
:01ED3C0022B4
:10EB4B00E490041BF0A3F0A3F0A3F0A3F0A3F01246
:10EB5B00EF2490041FEEF0A3EFF090041FE0FCA352
:10EB6B00E0FD2400F58274003CF583E0FE74012D7A
:10EB7B00F58274003CF583E0FDEDFF90041BEEF095
:10EB8B00A3EFF07B017A007902900420E024FEFDD4
:10EB9B0090041FE034FFFC12ECE490041DEEF0A394
:10EBAB00EFF090041BE0B50608A3E0B507037F0167
:03EBBB00227F00B6
:01EBBE002234
:06EDBE008B2F8A30893121
:10EDC4007B00900000E0543FFEA3E02402F582742F
:10EDD400003EF583E4F0852F358530368531370BD9
:07EDE4007A00790212EAC96E
:01EDEB002205
:06E7C5008B258A2689273E
:10E7CB00900402E4F0A3F0A3F0A3F0A3F0A3F0AF46
:10E7DB002EAE2DAD2CAC2B7B1CFAF9F812E6DC8F90
:10E7EB002E8E2D8D2C8C2BE4900000F0A3F07E044C
:10E7FB00FFFD7B017A00790212E751AB25AA26A90E
:10E80B002712EEC4AC06AD07AB25AA26A92712ED3D
:10E81B003D782B74FF12E72DEC4D4E4F607B90042F
:10E82B0007E0B40135900406E004F070069004058F
:10E83B00E004F0C3900406E09488900405E0941380
:10E84B004018900000E04480F0A3E0F0AB28AA2928
:10E85B00A92A12EDBEEA494B703F30983212EEEB0B
:10E86B00900000E0543FFCA3E02402F58274003CCE
:10E87B00F583EFF0900001E004F07006900000E0EB
:10E88B0004F09004077401F0E4900405F0A3F07F0A
:10E89B00017E0012EEFB02E81C900402E0FBA3E0F9
:04E8AB00FAA3E0F9F3
:01E8AF002246
:0EE8B0008B258A2689278F2B8E2A8D298C286E
:10E8BE00E490041BF0A3F0A3F0A3F07B1CFAF9F88C
:10E8CE0012E6DC8F2B8E2A8D298C28E4900000F026
:10E8DE00A3F07E04FFFD7B017A00790212E751ABB3
:10E8EE0025AA26A92712EEC4AC06AD07AB25AA268B
:10E8FE00A92712ED3D782874FF12E72DEC4D4E4FEF
:10E90E00606E90041EE0B4012990041DE004F070C6
:10E91E000690041CE004F0C390041DE0948890045B
:10E92E001CE09413400C900000E04480F0A3E0F053
:10E93E00803E30983212EEEB900000E0543FFCA384
:10E94E00E02402F58274003CF583EFF0900001E0C4
:10E95E0004F07006900000E004F090041E7401F0C4
:10E96E00E490041CF0A3F07F017E0012EEFB808584
:0AE97E00900000E0543FFEA3E0FF0C
:01E98800226C
:0AEF2F00AFA7E4F5A753D9BF8FA7E1
:01EF390022B5
:0DEF1700E4F5A743A41075E10175E3402265
:10EC260075A70F75B640E4F5A743C91043B28075C2
:10EC3600EF06F5A97F087042EF24FE601C24FE60F3
:10EC46001D24FC601E24F8601F24F0602024E06070
:10EC56002124C06022247F802143A910801C43A95F
:10EC660020801743A930801243A940800D43A95044
:10EC7600800843A960800343A970E5A930E7FB2219
:0FEEFB00EF1FAC0670011E4C6004000080F22275
:10EA490002ED87E493A3F8E493A34003F68001F26F
:10EA590008DFF48029E493A3F85407240CC8C333CE
:10EA6900C4540F4420C8834004F456800146F6DF9D
:10EA7900E4800B010204081020408090EF3AE47E04
:10EA8900019360BCA3FF543F30E509541FFEE49392
:10EA9900A360010ECF54C025E060A840B8E493A359
:10EAA900FAE493A3F8E493A3C8C582C8CAC583CA84
:10EAB900F0A3C8C582C8CAC583CADFE9DEE780BE3C
:01EF420000CE
:10E69600BB010689828A83E0225002E722BBFE0282
:09E6A600E32289828A83E49322B5
:10E6AF00BB010CE58229F582E5833AF583E0225020
:10E6BF0006E92582F8E622BBFE06E92582F8E2226A
:0DE6CF00E58229F582E5833AF583E4932284
:10E6DC00E88FF0A4CC8BF0A42CFCE98EF0A42CFCDD
:10E6EC008AF0EDA42CFCEA8EF0A4CDA8F08BF0A45B
:10E6FC002DCC3825F0FDE98FF0A42CCD35F0FCEBBA
:10E70C008EF0A4FEA9F0EB8FF0A4CFC5F02ECD397E
:0FE71C00FEE43CFCEAA42DCE35F0FDE43CFC22EB
:10E72B007401FF3395E0FEFDFC080808E62FFFF6A9
:10E73B0018E63EFEF618E63DFDF618E63CFCF62222
:06E74B008A838982E47359
:10E00000E5342428F8E605342278253007027828FC
:10E01000E475F00112E78F02E6962000EB7F2ED226
:10E02000008018EF540F2490D43440D4FF30040BF8
:10E03000EF24BFB41A0050032461FFE535600215D8
:10E04000350538E5387002053730070D7825E47559
:10E05000F00112E78FEF02E77D02EE657403D2074D
:10E060008003E4C207F5348B258A268927E4F53539
:10E07000F537F538E53560077F2012E03B80F57510
:10E0800036FFC201C200C202C203C205C206C208F4
:10E0900012E009FF700D3007057F0012E04CAF3829
:10E0A000AE3722B4255FC2D5C20412E009FF24D0E6
:10E0B000B40A00501A75F00A783530D50508B6FF55
:10E0C0000106C6A426F620D5047002D20380D92406
:10E0D000CFB41A00EF5004C2E5D20402E24CD201E0
:10E0E00080C6D20080C0D20280BCD2D580BAD20510
:10E0F00080B47F2012E03B2002077401B535004058
:10E10000F112E000FF12E03B02E074D208D2068078
:10E110009512E000FB12E000FA12E000F94A4B70A1
:10E1200006791D7AE37BFF20022EE535602A7E000A
:10E130008E8275830012E6AF60060EEE653670F0D3
:10E14000C2D5EBC0E0EAC0E0E9C0E0EE12E293D055
:10E15000E0F9D0E0FAD0E0FB12E696FF60AAEBC04F
:10E16000E0EAC0E0E9C0E012E03BD0E02401F9D0F1
:10E17000E03400FAD0E0FBE5360460DCD536D98027
:10E18000877BFF7AE2798FD202809C7910800279B6
:10E1900008C206C2088008D2D5790A8004790AC26A
:10E1A000D5E536047002F536E4FAFDFEFF12E00014
:10E1B000FC7B0820011312E000FD7B1030000A12E6
:10E1C000E000FE12E000FF7B20EC3382D592D550B8
:10E1D00013C3E43000069FFFE49EFEE42001039D8C
:10E1E000FDE49CFCE4CBF8C201EC700CCFCECDCCAE
:10E1F000E824F8F870F38017C3EF33FFEE33FEED39
:10E2000033FDEC33FCEB33FB994002FB0FD8E9EB19
:10E21000300105F8D0E0C448B201C0E00AEC4D4E30
:10E220004F78207B0070C2EAB5360040BCC0E012D7
:10E23000E295D0F0D0E0200104C4C0E0C4B201C037
:10E24000F012E024D0F0D5F0EB02E07412E79FE189
:10E250001153E18B58E0E24CE0DE42E18F4FE19751
:0FE2600044E19749E0F743E19D55E18146E181B3
:10E26F0045E18147E33D50E0E62DE0EA2EE10D2B3D
:10E27F00E0EE23E10B20E3262AE0A6480000E105AB
:10E28F003F3F3F00790AA2D5200314300509B9108A
:10E29F00020404B9080104A2D5200602500104208B
:10E2AF0002689202B535005034C0E07F2030031968
:10E2BF007F30A20272067205500F12E2ECC202C248
:10E2CF0006C205C2087F30800F300503E9C0E01297
:10E2DF00E03B300503D0E0F9D0E0B535CC30051781
:10E2EF007F30B9100C12E03B7F583004077F7880E5
:10E2FF0003B9080312E03B3002057F2D02E03B7F9C
:10E30F00202008F87F2B2006F322920280CF286E60
:10E31F00756C6C2900D20112E0003001F8C201784F
:10E32F003530D50108F602E0A62D5043495812E0CA
:10E33F00002403B405004001E490E3389312E02C6D
:0DE34F00743A12E02CD20375350402E18B04
:10EEC400E4FFFE12E696600C0FEF70010E09E97084
:05EED400F20A80EF22AC
:10EAC9008B328A338934AB35AA36A93712E6966078
:10EAD90063AB32AA33A93412E696605F853538856F
:10EAE900363985373A8B3B8A3C893DAB38AA39A9F7
:10EAF9003A12E696FF6023AB3BAA3CA93D12E69683
:10EB09006F701704253AF53AE43539F5397401255A
:10EB19003DF53DE4353CF53C80D1AB38AA39A93AFD
:10EB290012E6967002800D74012534F534E435330C
:10EB3900F533809DAB32AA33A934227B007A007960
:02EB49000022A8
:10E75100EF4E6012EF60010EEDBB010B89828A83DF
:10E76100F0A3DFFCDEFA2289F05007F709DFFCA9EC
:0CE77100F022BBFEFCF309DFFCA9F02243
:10E77D00BB010689828A83F0225002F722BBFE017B
:02E78D00F32275
:10E78F00FAE6FB0808E6F925F0F618E6CA3AF6228B
:10E79F00D083D082F8E4937012740193700DA3A309
:10E7AF0093F8740193F5828883E47374029368601D
:06E7BF00EFA3A3A380DF1D
:10EE6500EFB40A07740D12EE70740A309811A89960
:10EE7500B8130CC2983098FDA899C298B811F6300D
:07EE850099FDC299F59922E5
:00000001FF
